:020000040800F2
:1000000070140020E101000803100008190E000818
:1000100001100008710200087512000800000000BD
:10002000000000000000000000000000490100087E
:1000300073020008000000008D010008891000080C
:10004000FB010008FB010008FB010008FB010008A0
:10005000FB010008FB010008FB010008FB01000890
:10006000FB010008FB010008FB010008FB01000880
:10007000FB010008FB010008FB010008FB01000870
:10008000FB010008FB010008FB010008FB01000860
:10009000FB010008FB010008FB010008FB01000850
:1000A000FB010008FB010008FB010008FB01000840
:1000B000FB010008FB01000815110008FB01000806
:1000C000FB010008FB010008FB010008FB01000820
:1000D000FB010008FB010008FB010008FB01000810
:1000E000FB010008FB010008FB010008FB01000800
:1000F000FB010008FB010008FB010008FB010008F0
:10010000FB010008FB010008FB010008FB010008DF
:10011000FB010008FB010008FB010008FB010008CF
:10012000FB010008FB010008FB010008FB010008BF
:10013000DFF810D000F08AF8004800470D130008DF
:10014000AFF3008070140020224B19680868B0E8F3
:10015000F00F80F30988BFF36F8F4FF0000080F33A
:1001600011884EF00D0E7047000000000648006830
:10017000006880F3088862B661B6BFF34F8FBFF3A3
:100180006F8F00DF00BF00BF08ED00E0EFF30980D4
:10019000BFF36F8F0F4B1A6820E9F00F106008B59E
:1001A0004FF0500080F31188BFF34F8FBFF36F8F74
:1001B00001F0FAFD4FF0000080F31188BDE808401F
:1001C00019680868B0E8F00F80F30988BFF36F8FF3
:1001D000704700BF30000020EFF30580704700003B
:1001E0000648804706480047FEE7FEE7FEE7FEE7D1
:1001F000FEE7FEE7FEE7FEE7FEE7FEE71311000875
:100200003101000840EA01039B0703D009E008C957
:10021000121F08C0042AFAD203E011F8013B00F8CB
:10022000013B521EF9D27047D2B201E000F8012B17
:10023000491EFBD270470022F6E710B513460A4666
:1002400004461946FFF7F0FF204610BD064C074D47
:1002500006E0E06840F0010394E807009847103496
:10026000AC42F6D3FFF768FF80290008A0290008F8
:10027000FEE7704772B6FEE72DE9F84FDFF8C89148
:100280000024A9F1040B23460F2709F1040AABF15E
:10029000040ED1E00125A54006EA0502AA4276D166
:1002A000DFF8A8C14E68A6EB0C0866452BD00DDC24
:1002B000032E34D005DC36B3012E19D0022E2FD1F7
:1002C0001BE0112E16D0122E2AD119E0B8F5881F86
:1002D00019D006DCB8F5803F15D0B8F5801F1FD1C6
:1002E00011E0B8F5001F0ED0B8F5041F18D10AE0D0
:1002F000CB6815E0CB681B1D12E0CB6808330FE01C
:10030000CB680C330CE08B682BB1012B4FF008034A
:1003100003D0456104E0042302E0056100E000230E
:10032000FF2A01D8064601E000F104064FEA8405E1
:1003300001D9A5F12005D6F8008007FA05FC28EAC6
:100340000C0803FA05F548EA0508C6F800804D6870
:10035000ED0070D53E4DAE6946F00106AE61AD6967
:1003600024F0030605F0010500953A4D06EB050C57
:10037000DCF80850A607360F07FA06F825EA080544
:10038000DFF8D480404503D14FF0000825E052E06B
:10039000DFF8C880404502D14FF001081DE0DFF8CA
:1003A000C080404502D14FF0020816E0DFF8B4806B
:1003B000404502D14FF003080FE0DFF8AC80404524
:1003C00002D14FF0040808E0DFF8A080404502D1D8
:1003D0004FF0050801E04FF0060808FA06F848EA71
:1003E0000508CCF808804D68D9F80060ED024D464C
:1003F00001D5164300E096432E604D68DAF80060A0
:10040000AD02554601D5164300E096432E604D6877
:10041000DBF80060AD035D4601D5164300E096436E
:100420002E604D68DEF80060ED03754601D5164379
:1004300000E096432E60641C0A681646E2407FF492
:1004400029AFBDE8F88F000008040140000011103A
:10045000001002400000014000080140000C014073
:10046000001001400014014000180140001C014030
:100470008068084000D001207047C26821EA02036A
:100480000A4043EA0241016170470AB101617047C5
:100490000904FBE701488068704700002000002045
:1004A0000248816802781144816070472000002072
:1004B000074810B5016841F010010160032000F009
:1004C00095F80F2000F006F800F03EF8002010BD6F
:1004D0000020024000B5014687B000221E2000F037
:1004E00065F81E2000F054F81348C16941F004017A
:1004F000C161C06905A900F004000690684600F0DB
:100500001DF900F03BF90D494000B0FBF1F10D4839
:100510000B4A491E0260416040F2E7320021C0E907
:100520000321816000F002FB10B1012007B000BD83
:10053000044800F029FBF9E70010024040420F0098
:1005400000080040380300200F4808B5816941F0D9
:1005500001018161816901F001010091C16941F0EE
:100560008051C161C069002200F0805000900F21CD
:10057000901E00F01BF80548416821F0E06141F051
:100580000071416008BD0000001002400000014001
:10059000002809DB00F01F02012191404009800082
:1005A00000F1E020C0F8001170470000F0B40E4BDD
:1005B0001B680C46C3F30223C3F10705042D00D9C1
:1005C0000425191D072901D2002300E0DB1E0126A6
:1005D00006FA05F1491E214099409E40761E1640BC
:1005E0003143F0BC00F050BE0CED00E0064900F0D5
:1005F000070208684FF6FF03184040EA0220034A4A
:1006000010430860704700000CED00E00000FA05A0
:100610002DE9F0470F46050061D0434E306800F0E9
:100620000700B84209D2306820F007003843306034
:10063000306800F00700B84251D128683B4C810770
:1006400012D5400703D5606840F4E0606060287808
:10065000000703D5606840F4605060606068A96876
:1006600020F0F000084360602878C00728D0686850
:10067000012810D02168022810D0890700292EDA1D
:10068000616821F0030101436160FFF703FF8046C9
:1006900041F288390DE021688903EFE78901EDE730
:1006A000FFF7F8FEA0EB0801494502D90320BDE899
:1006B000F0876068696800F00C00B0EB810FEFD143
:1006C000306800F00700B8420BD9306820F007000E
:1006D00038433060306800F00700B84201D0012094
:1006E000E5E72878400705D56068E96820F4E06010
:1006F000084360602878000706D56068296920F4FF
:10070000605040EAC100606000F058F86168084A33
:10071000C1F30311515CC8400649086006480068EF
:10072000FFF7D8FE0020C2E7002002400010024080
:10073000222900082C000020240000200F22026043
:100740000C4A536803F003034360536803F0F0035B
:100750008360536803F4E063C36052684FF4E0635E
:1007600003EAD20202610448006800F00700086052
:100770007047000000100240002002400448054974
:1007800000684968044AC1F30221515CC8407047BF
:100790002C000020001002403229000804480549BE
:1007A00000684968044AC1F3C221515CC8407047DF
:1007B0002C00002000100240322900080E4A516827
:1007C0000E4801F00C03042B11D0082B0FD10C485C
:1007D000C1F38343C903C05C0AD55168084AC1F319
:1007E0004041921E515C054A5043B0FBF1F0704706
:1007F00004494843704700000010024000127A008C
:100800001229000800093D002DE9F84F040070D0BE
:100810002078C04DC00749D06868C0F38100012826
:1008200007D06868C0F38100022809D16868C00356
:1008300006D52868800339D560680028E7D035E000
:100840006068B0F5803F0BD010B1B0F5A02F11D08B
:10085000286820F480302860286820F4802002E096
:10086000286840F480302860606890B1FFF712FE7D
:1008700006460AE0286840F480202860F0E700BFC0
:10088000FFF708FE801B642873D828688003F7D51B
:100890000CE0FFF7FFFD064605E000BFFFF7FAFD9D
:1008A000801B6428F0D828688003F7D420789A4EFB
:1008B00080074FF001094FF0000839D5686810F043
:1008C0000C0F07D06868C0F38100022809D168685E
:1008D000C00306D42868800714D52069012808D1F0
:1008E00010E02069B0B1C6F80090FFF7D3FD0746CD
:1008F00005E00AE1FFF7CEFDC01B0228C4D8286836
:100900008007F7D52868616920F0F80040EAC10047
:1009100028600DE0C6F80080FFF7BCFD074604E044
:10092000FFF7B8FDC01B022823D828688007F7D43A
:10093000207800072CD57948A169D9B1C0F800907A
:10094000FFF7A8FD074604E0FFF7A4FDC01B02283F
:100950000FD8686A8007F7D571484FF4FA510068DC
:10096000B0FBF1F0009000BF0098411E0091FAD258
:100970000EE080E0C0F80080FFF78CFD074604E041
:10098000FFF788FDC01B022875D8686A8007F7D476
:100990002078400760D5E8690027C00008D4E869DE
:1009A00040F08050E861E869012700F08050009035
:1009B0005C480168C90513D40168834641F480711D
:1009C0000160FFF767FD824606E000BFFFF762FDAA
:1009D000A0EB0A0064284ED8DBF80000C005F5D56E
:1009E000E06801280AD008B1052813D0286A20F051
:1009F00001002862286A20F0040002E0286A40F022
:100A000001002862E06841F2883B98B1FFF742FD9F
:100A100082460BE0286A40F004002862EEE700BF3F
:100A2000FFF738FDA0EB0A0159455AD8286A80071C
:100A3000F6D50CE0FFF72EFD824605E0FFF72AFD14
:100A4000A0EB0A0159454CD8286A8007F6D41FB19B
:100A5000E86920F08050E861E06988B36968C1F313
:100A60008101022944D00228C6F8608004D0FFF733
:100A700011FD044638E034E0FFF70CFD074604E0C2
:100A8000FFF708FDC01B02282BD828688001F7D487
:100A9000206AB0F5803F05D16868A16820F4003075
:100AA00008436860D4E908010843696821F47411B7
:100AB00008436860C6F86090FFF7ECFC044606E067
:100AC00025E000BFFFF7E6FC001B022809D82868D4
:100AD0008001F7D51BE000BFFFF7DCFC001B0228FC
:100AE00002D90320BDE8F88F28688001F4D40EE015
:100AF0000128F7D06868226A00F48031914204D15D
:100B0000616A00F47010884201D00120EAE70020F9
:100B1000E8E7000000100240000042428004424228
:100B20002C000020007000407047704710B5040092
:100B300003D094F83D0010B107E0012010BD002063
:100B400084F83C00204600F01EF8022084F83D00A6
:100B5000211D206800F0E4FA012084F8460084F8A2
:100B60003E0084F83F0084F8400084F8410084F897
:100B7000420084F8430084F8440084F8450084F877
:100B80003D00002010BD704790F83D10012901D0B4
:100B900001207047022180F83D100168CA6842F0C8
:100BA0000102CA6000680E4988420ED00D49884291
:100BB0000BD0B0F1804F08D00B49884205D00B49CB
:100BC000884202D00A49884204D1816801F00701B5
:100BD000062903D0016841F001010160002070473F
:100BE000002C014000340140000400400008004097
:100BF000000C004070472DE9F04104460068C668CB
:100C000005694FF00007A90713D5B10711D5F91EE3
:100C1000016101202077206880698007204602D08A
:100C2000FFF7E8FF04E000F07EF8204600F07CF8D3
:100C30002777680716D5700714D521686FF0040070
:100C40000861022020772068806910F4407F2046E8
:100C500002D0FFF7CFFF04E000F065F8204600F077
:100C600063F82777280715D5300713D521686FF06B
:100C700008000861042020772068C06980072046AA
:100C800002D0FFF7B7FF04E000F04DF8204600F077
:100C90004BF82777E80616D5F00614D521686FF0D3
:100CA00010000861082020772068C06910F4407F98
:100CB000204602D0FFF79EFF04E000F034F8204603
:100CC00000F032F82777E80708D0F00706D021684F
:100CD0006FF001000861204600F028F8280608D5CA
:100CE000300606D521686FF0800008612046FFF7C6
:100CF0001BFF680608D5700606D521686FF0400016
:100D00000861204600F01CF8A8060AD5B00608D5F0
:100D100021686FF0200008612046BDE8F041FFF730
:100D200004BFBDE8F08170477047000000680349C8
:100D3000884201D1FFF7B4BB7047000000080040B3
:100D4000704770B5040004D094F84100002510B13C
:100D500006E0012070BD84F84050204600F024F8E1
:100D6000242084F841002068C16821F40051C1604A
:100D7000204600F023FA2068016921F490410161C6
:100D80002068416921F02A0141612068C16841F46D
:100D90000051C1606564202084F8410084F842005D
:100DA0006563002070BD000030B585B0002400945C
:100DB00001940294039400681449884224D1144891
:100DC000816941F480418161816901F4804104912C
:100DD000816941F00401816180690E4D00F00400D9
:100DE00004904FF4007000900220019003200390C3
:100DF00069462846FFF740FA2815CDE90004694600
:100E000028460294FFF738FA05B030BD003801409B
:100E10000010024000080140FEE70000094C4FF0BE
:100E2000FF354FF4FA762946E06900F0BFFA06A0D4
:100E300000F022FAE06900F091FA304600F0DAFEA4
:100E4000F1E700000000002068656C6C6F20776F90
:100E5000726C640D0A000000094C4FF0FF354FF42E
:100E6000FA762946E06900F0A1FA06A000F004FA3B
:100E7000E06900F073FA304600F0BCFEF1E70000D4
:100E80000000002048454C4C4F20574F524C440D19
:100E90000A00000010B5A6B000202390249023A8DB
:100EA00000F053FA1C4C1C221C49E0616846FFF715
:100EB000A9F90021684600F0ABFA1849A0601C228D
:100EC0001C3107A8FFF79EF9002107A800F0A0FA3F
:100ED0001249E0601C2238310EA8FFF793F9002177
:100EE0000EA800F095FA0D4960611C22543115A836
:100EF000FFF788F9002115A800F08AFA0749A061D8
:100F00001C2270311CA8FFF77DF900211CA800F0FD
:100F10007FFA206126B010BD000000208428000860
:100F20002DE9F04385B000242448009401940294F4
:100F30000394816941F040018161816901F04001C0
:100F40000491816941F004018161816901F004012A
:100F50000491816941F0080181618069DFF8608056
:100F600000F008000490002220214046FFF78DFA8F
:100F7000DFF85090002220214846FFF786FA102023
:100F8000CDE90004694640460294FFF775F9202533
:100F90000227012603970095CDE901646946404682
:100FA000FFF76AF903970095CDE901646946484661
:100FB000FFF762F905B0BDE8F083000000100240C1
:100FC00000180140000C01400C4810B50A490160AE
:100FD0004FF4E1314160002181600C22C160C0E921
:100FE00004128161C161FFF7ACFE002803D0BDE8A7
:100FF0001040FFF73FB910BD00380140F00200205B
:10100000FEE7FEE7044C054D20212046FFF735FAA8
:10101000286800F08EF9F7E7000C0140000000207E
:10102000044C054D20212046FFF727FA686800F0A0
:1010300080F9F7E70018014000000020104C114D26
:1010400010212846FFF714FAA8B91E2000F071F904
:1010500010212846FFF70CFA38B920686168216032
:10106000606002E00A2000F064F910212846FFF7D2
:10107000FFF90028F6D00A2000F05BF9E0E7000055
:10108000000000200018014010B5502080F31188A6
:10109000BFF34F8FBFF36F8F01F060FA18B10449AF
:1010A0004FF080500860002080F3118810BD0000D0
:1010B00004ED00E030B58FB028216846FFF7BBF89B
:1010C00014210AA8FFF7B7F801210804CDE90010A0
:1010D0000024029402250491CDE907504FF4E0105A
:1010E00009906846FFF790FB08B172B6FEE70F2043
:1010F000CDE90A054FF48060CDE90C4002210AA831
:101100000E94FFF785FA002801D072B6FEE70FB003
:1011100030BD70470148FFF76EBD00003803002066
:10112000F0B50268204C214D214E224F224B4FF04A
:10113000804CA04209D0984207D0604505D0A84213
:1011400003D0B04201D0B84204D122F0700E4A68F8
:1011500042EA0E02A04209D0984207D0604505D06D
:10116000A84203D0B04201D0B84203D122F4407566
:10117000CA682A434D6922F080022A4302608A68C5
:10118000C2620A688262A04201D0984201D1096914
:101190000163012141610169C90703D0016921F09F
:1011A00001010161F0BD0000002C0140000400407D
:1011B00000080040000C00400034014070B50446B7
:1011C00000680169E26821F440511143016121691D
:1011D000A0680843616908432168CA6841F20C634A
:1011E0009A430243CA6020684169A26921F44071B0
:1011F000114341611E492068884202D1FFF7CEFAAF
:1012000001E0FFF7BBFA00EBC00101EB00126068E0
:1012100064218000B2FBF0F3B3FBF1F36FF018062A
:101220007343B2FBF0F5B2FBF0F605EB8305322316
:1012300003EB0515B5FBF1F5B6FBF1F605F0F0058E
:1012400005EB0615B2FBF0F6B2FBF0F0B0FBF1F0E7
:101250006FF01802504306EB800003EB0010B0FB68
:10126000F1F0216800F00F002844886070BD000094
:1012700000380140FEE70000014A024900F023B8AF
:10128000E9120008980000200907090E002804DB75
:1012900000F1E02080F80014704700F00F0000F12A
:1012A000E02080F8141D704702E008C8121F08C132
:1012B000002AFAD170477047002001E001C1121FD7
:1012C000002AFBD170472DE9F04116460F4604462F
:1012D000002503E03946B047641C6D1C20780028C7
:1012E000F8D12846BDE8F08104490A681206FCD509
:1012F000024AC1B2121D116070470000003801405F
:10130000EFF30580002800D001207047FFF7D0F8E8
:10131000FFF7D0FEFFF704FEFFF756FEFFF7BAFD1A
:1013200000F00EF8FEE701460020842900D0C81C1A
:10133000704710B500B9012000F05CFC002010BD22
:1013400010B500F0F3FC002010BD41684FF0010023
:1013500009B100F0B6BD00F0A9BD000038B5002409
:1013600005460094FFF7CCFF90B16946284600F08F
:10137000FDFE012801D0FF2038BD009888B10A4940
:101380004FF080500860BFF34F8FBFF36F8F08E0BE
:1013900000231A461946284600F038FE012800D0DE
:1013A000FF24204638BD000004ED00E038B50500FC
:1013B0004FF0000000900FD00024481C0ED001B167
:1013C0000C46FFF79DFFB8B16A460021284600F0A1
:1013D0001BFF012816D104E0802038BD4FF0FF34F8
:1013E000EFE7009880B109494FF080500860BFF3E3
:1013F0004F8FBFF36F8F07E02146284600F052FF62
:10140000012801D0FF2038BD002038BD04ED00E0E8
:101410007FB50D4604464169B0F9080081B1A16964
:1014200071B1FFF780FFD4E905128DE80700D4E918
:1014300000102B46226901F058F8039004B070BDEB
:10144000FFF771FF03A9CDE90001208A2B4682B284
:10145000D4E9001001F01CF8012801D00020EDE7CC
:101460000398EBE72DE9F041184C0F460546E66876
:101470002068001D00F0CCFA38B9206890F82C10D4
:1014800001208840216981432161681C07D137B15F
:101490002168BDE8F0410E48091D00F0FDBA206842
:1014A0003544B5424560216805D2A06BBDE8F041E6
:1014B000091D00F0D9BA606B091D00F0D5FAA06AC9
:1014C000854200D2A562BDE8F08100003000002016
:1014D0005C0400202DE9F041054600F0E9FA2E4CAD
:1014E000A068401CA06020682C4F10B1606940B318
:1014F0002DE02560A068012829D1002606EB860092
:1015000007EB800000F0A2FA761C072EF6D32348E2
:101510008C3000F09BFA2148A03000F097FA1F4869
:10152000B43000F093FA1D48C83000F08FFA1B4821
:10153000DC3000F08BFA19488C3060631430A06303
:1015400005E02068E96AC06A884200D82560606AC0
:10155000401C6062E96A01202269884010432061D2
:1015600001EB810007EB8000291D00F095FA00F0E7
:10157000BFFA606900280CD02068E96AC06A884216
:1015800007D207494FF080500860BFF34F8FBFF379
:101590006F8FBDE8F0810000300000208003002044
:1015A00004ED00E030B4026C0B46002A0BD0C16899
:1015B0001144C1608468A14201D30168C16030BC9C
:1015C0001846FEF71FBE30BC70472DE9F041856B11
:1015D000174604460026026C82B1C7B1E068FEF7E8
:1015E00011FEE168206C091AE1602268914202D282
:1015F000A168081AE060022F16D017E02068A8B989
:10160000A06801F011F806460020A0600EE06068B6
:10161000FEF7F8FD216C606808446060A1688842AC
:1016200004D32068606001E005B16D1E6D1CA563E8
:101630003046BDE8F08110B5044690F8510058B12D
:1016400001280CD002280FD0502080F31188BFF35E
:101650004F8FBFF36F8FFEE7206B00F05DFA2046DF
:10166000BDE8104000F058BA10BD000010484FF41B
:101670004061420706D0C01D0D4920F00700411A05
:10168000C1F540610B4A00230144C2E90003083957
:10169000183A21F0070111604B600B600B1AC0E98A
:1016A000001393604FF0004053605061704700009A
:1016B0007004002084000020144E154CA6F1C807C9
:1016C0004FF08058DFF84C9012E000BF00F0F0F9C6
:1016D000F068C568281D00F09BF9A068401EA06056
:1016E0006068401E606000F003FA2846FFF7A3FF21
:1016F00060680028EAD138680128F9D9C9F8008063
:10170000BFF34F8FBFF36F8FF2E700004804002054
:101710003000002004ED00E0002807D000218160A7
:1017200001600B460A46C16000F070BC704703467A
:10173000009829B10260C0E90F31012100F022BCFC
:101740000060F8E72DE9F0479A46DDE90984814613
:101750006FF00303206B03EB82021044089E20F01D
:101760000707780707D0502080F31188BFF34F8F09
:10177000BFF36F8FFEE7002561B1002023180A5CDC
:1017800083F834200A5C12B1401C1028F6D384F888
:10179000435001E084F83450072E00D30626E66259
:1017A000C4E91165201D00F05CF904F1180000F097
:1017B00058F92461C6F107006462A061E56484F809
:1017C000505052464946384600F010F92060B8F1B2
:1017D000000F01D0C8F80040BDE8F08730B51149CE
:1017E00000E011460A688242FBD34B685C188442D1
:1017F00003D1406818444860084643681C18944266
:1018000009D1084C183C2468A24209D052681A44F5
:1018100042600A6812680260814200D0086030BDF0
:101820000460F9E78400002010B5044600F040F998
:10183000A06B28B15FF0000400F05AF9204610BDFB
:101840000124F9E70648416B096829B1416BC96871
:10185000C9684968816270474FF0FF31FAE70000BC
:101860003000002008484068401C4FF0500080F3D2
:10187000118804D0BFF34F8FBFF36F8FFEE7BFF324
:101880004F8FBFF36F8FFEE78C0000202DE9F041F2
:10189000044600F00DF994F9455004F1240609E0DE
:1018A000606A48B1304600F051FF08B100F0D0F94D
:1018B0006D1E6DB2002DF3DC4FF0FF3684F84560ED
:1018C00000F016F900F0F4F894F9445004F1100710
:1018D00009E0206948B1384600F038FF08B100F04F
:1018E000B7F96D1E6DB2002DF3DC84F84460BDE8DD
:1018F000F04100F0FDB800002DE9F0410546002759
:1019000000F04AFA324E306808B9FFF7AFFE70694E
:1019100005424ED1C5B3083568070ED005F0070063
:10192000C0F108000544680707D0502080F31188F3
:10193000BFF34F8FBFF36F8FFEE72DB37068854203
:1019400037D82348183001460C6801E020460C4681
:101950006168A94202D221680029F7D131688C421E
:1019600027D007682168016060680837411B10298B
:101970000FD96019420708D0502080F31188BFF3B7
:101980004F8FBFF36F8FFEE713E041606560FFF795
:1019900025FF61687068401A7060B268904200D29A
:1019A000B060706901430020C4E90001F068401C88
:1019B000F06000F005FF780707D0502080F3118811
:1019C000BFF34F8FBFF36F8FFEE73846BDE8F0815E
:1019D0006C0000200449086818B10868826C521C29
:1019E00082640868704700003000002010B5031FB3
:1019F0004FF080741C601B1F21F001011960191F3A
:101A0000024B0B60143940380A6010BD651800089D
:101A1000D0E9013201699A60D0E901235A604A682D
:101A2000824201D182684A60002202610868401E39
:101A30000860086870470000034B036003F154001E
:101A400008608020106070479C00002000F10801B1
:101A50004FF0FF32C0E90112C16001610021016055
:101A6000704700210161704730B50B685A1C02D0E5
:101A700000F1080202E0026904E022465468256889
:101A80009D42FAD953684B6099608A605160086141
:101A90000168491C016030BD42684A6093688B60F0
:101AA00093685960916008610168491C0160704742
:101AB000502080F31188BFF34F8FBFF36F8F0A4917
:101AC0004868401C486001280CD10848006810F0A4
:101AD000FF0F07D0502080F31188BFF34F8FBFF363
:101AE0006F8FFEE7704700008C00002004ED00E0DF
:101AF0000849486828B1401E486001D180F3118828
:101B00007047502080F31188BFF34F8FBFF36F8F62
:101B1000FEE700008C00002070B500282AD0164D8A
:101B2000A0F1080460686969084207D1502080F379
:101B30001188BFF34F8FBFF36F8FFEE722683AB172
:101B4000502080F31188BFF34F8FBFF36F8FFEE7F4
:101B50008843606000F020F9606869680844686044
:101B60002046FFF73BFE2869401C2861BDE8704015
:101B700000F026BE70BD00006C0000204FF0E02099
:101B800000210161816105494FF47A720968B1FB56
:101B9000F2F1491E41610721016170472C000020CC
:101BA00010B5FEF719FB114910280ED300F1E02003
:101BB00090F8F0030A78904207D2502080F3118801
:101BC000BFF34F8FBFF36F8FFEE709480068896846
:101BD00000F4E060884207D9502080F31188BFF3F9
:101BE0004F8FBFF36F8FFEE710BD00008C00002009
:101BF0000CED00E010B5020014D00F48006B38B1B6
:101C0000502080F31188BFF34F8FBFF36F8FFEE733
:101C100000F0C2F800211046FFF724FC00F0D0FDD0
:101C2000002807D105494FF080500860BFF34F8F5F
:101C3000BFF36F8F10BD00003000002004ED00E006
:101C400002490A6A0260C96841607047300000209A
:101C500001490120C86170473000002010B50C46D2
:101C600050B1094909681831FFF7FEFE2046BDE86A
:101C700010400121FFF7F6BB502080F31188BFF31D
:101C80004F8FBFF36F8FFEE73000002070B5040068
:101C900047D0A26CA2B1606C884200D30146E06AD2
:101CA00088423ED0012A3CD11E4D2A6894420FD171
:101CB000502080F31188BFF34F8FBFF36F8FFEE783
:101CC000502080F31188BFF34F8FBFF36F8FFEE773
:101CD000E162A269002A02DBC1F10701A161124E93
:101CE00000EB8000616906EB8000814219D1201D64
:101CF000FFF78EFE012130B994F82C002A6901FA11
:101D000000F082432A61E06A2A6981401143296117
:101D100000EB800006EB8000211DBDE87040FFF75E
:101D2000BBBE70BD300000208003002010B586B01F
:101D30000024039405AA04A903A80494FFF77CFED9
:101D4000DDE903010094CDE9011000230EA1104844
:101D5000059A00F0CAFB0F490028C86211D0502034
:101D600080F31188BFF34F8FBFF36F8F4FF0FF30B9
:101D7000886201204861CC6006B0BDE8104000F0E8
:101D800041B806B010BD000049444C4500000000B9
:101D9000B9160008300000200248016B491C01639D
:101DA00070470000300000201448016B11B1012180
:101DB000C16170470021C1610169B1FA81F1C1F1CE
:101DC0001F0101EB81020E4951F822306BB101EB8A
:101DD000820101F108034A6852684A609A4201D1BF
:101DE00052684A60D16801607047502080F31188C2
:101DF000BFF34F8FBFF36F8FFEE70000300000206E
:101E0000800300201CB5264908780190FF20087047
:101E100008788DF800009DF800009DF8002000F083
:101E2000F000904207D0502080F31188BFF34F8F0D
:101E3000BFF36F8FFEE79DF800001A4C00F05000D2
:101E400020700720A06005E09DF8002052008DF86A
:101E50000020401E9DF800201206F5D4A060032843
:101E600007D0502080F31188BFF34F8FBFF36F8FDF
:101E7000FEE74FF44070A060019808700A480168BE
:101E800041F470010160016841F070410160FFF7A9
:101E900075FE00206060FEF769F900201CBD00009F
:101EA00000E400E08C00002020ED00E010B50246C8
:101EB0000021012000F012F80446FFF72DFC204617
:101EC00010BD38B50B46002200901146012000F0ED
:101ED00026F80446FFF720FC204638BDF8B5174623
:101EE0000E46050013D005FB06F04830FFF704FD51
:101EF00004000AD0002084F8460004F148023B4662
:101F0000314628460094FFF712FC2046F8BD5020C9
:101F100080F31188BFF34F8FBFF36F8FFEE738B5A3
:101F2000049D18B153B1CAB181B120E0502080F3B3
:101F30001188BFF34F8FBFF36F8FFEE7502080F300
:101F40001188BFF34F8FBFF36F8FFEE7502080F3F0
:101F50001188BFF34F8FBFF36F8FFEE739B1502069
:101F600080F31188BFF34F8FBFF36F8FFEE74824D4
:101F70001C46012384F846302B460094FFF7D7FB1C
:101F8000204638BD70B50D46040025D0FFF790FD02
:101F9000D4E90F20216802FB0011A1600021A16398
:101FA000216861600A46D4E90F01401E00FB01214F
:101FB000E16021464FF0FF3001F8440F487004F112
:101FC00010008DB1FFF742FD04F12400FFF73EFD44
:101FD000FFF78EFD012070BD502080F31188BFF304
:101FE0004F8FBFF36F8FFEE721690029F0D000F01B
:101FF000ADFB0028ECD004494FF080500860BFF3DF
:102000004F8FBFF36F8FE3E704ED00E02DE9FF474B
:1020100082B01D468A464FF00008040003D0BAF192
:10202000000F08D011E0502080F31188BFF34F8FCC
:10203000BFF36F8FFEE7206C38B1502080F311881A
:10204000BFF34F8FBFF36F8FFEE7022D0AD1E06B16
:10205000012807D0502080F31188BFF34F8FBFF3C2
:102060006F8FFEE700F06CFA3F4F4FF000094FF022
:10207000805648B9049838B1502080F31188BFF3D6
:102080004F8FBFF36F8FFEE7FFF712FDA06BE16B81
:10209000884207D3022D05D00498D0B1B8F1000FC3
:1020A0001AD01EE02A4651462046FFF78EFA616A92
:1020B00019B104F1240000F049FB20B13E60BFF3E8
:1020C0004F8FBFF36F8FFFF713FD012006B0BDE800
:1020D000F087FFF70DFD22E06846FFF7B1FD4FF0F6
:1020E0000108FFF705FDFFF757FEFFF7E1FC94F944
:1020F0004400401C01D184F8449094F94500401CF0
:1021000001D184F84590FFF7F3FC04A9684600F07C
:1021100085F930B12046FFF7B9FB00F051FB0020F4
:10212000D4E7FFF7C5FCA06BE16B884213D1FFF742
:10213000DFFC04F110000499FFF790FD2046FFF743
:10214000A5FB00F03DFB00289ED13E60BFF34F8F02
:10215000BFF36F8F98E7FFF7CBFC2046FFF796FBA6
:1021600000F02EFB90E7000004ED00E070B50E4695
:10217000040009D0206C78B1502080F31188BFF39F
:102180004F8FBFF36F8FFEE7502080F31188BFF3AE
:102190004F8FBFF36F8FFEE7206848B9A06838B152
:1021A000502080F31188BFF34F8FBFF36F8FFEE78E
:1021B000FFF7F6FC5020EFF3118580F31188BFF391
:1021C0004F8FBFF36F8FA16BE06B884218D994F9E2
:1021D0004500491CA163411C04D0401C84F8450003
:1021E00001200EE0606A0028FAD004F1240000F01B
:1021F000ADFA0028F4D0002EF2D001203060EFE7D5
:10220000002085F3118870BD2DE9F047904689467E
:10221000040003D0B9F1000F08D011E0502080F382
:102220001188BFF34F8FBFF36F8FFEE7206C38B17B
:10223000502080F31188BFF34F8FBFF36F8FFEE7FD
:10224000FFF7AEFC5020EFF3118680F31188BFF347
:102250004F8FBFF36F8FA76BF7B194F94450494686
:102260002046FFF79FF97F1EA763681C04D06D1CF2
:1022700084F84450012010E020690028FAD004F1CD
:10228000100000F063FA0028F4D0B8F1000FF1D08C
:102290000121C8F80010EDE7002086F31188BDE8A1
:1022A000F08700002DE9F343002683B00400354693
:1022B00009D0206C78B1502080F31188BFF34F8F84
:1022C000BFF36F8FFEE7502080F31188BFF34F8F6D
:1022D000BFF36F8FFEE700F033F9DFF83C814FF07A
:1022E00000094FF0805748B9049838B1502080F366
:1022F0001188BFF34F8FBFF36F8FFEE7FFF7D8FB57
:10230000A06BC8B1401EA063206810B9FFF762FB44
:10231000A060206950B104F1100000F017FA28B154
:10232000C8F80070BFF34F8FBFF36F8FFFF7E0FB6C
:10233000012005B0BDE8F083049808B166B10FE054
:102340003DB1502080F31188BFF34F8FBFF36F8FE3
:10235000FEE7FFF7CDFB5DE06846FFF771FC012665
:10236000FFF7C6FBFFF718FDFFF7A2FB94F9440047
:10237000401C01D184F8449094F94500401C01D1DF
:1023800084F84590FFF7B4FB04A9684600F046F8CE
:102390000028204612D0FFF779FA00F011FA204603
:1023A000FFF742FA0028A9D09DB3FFF781FB606ACE
:1023B00050B3206B0068C0F1070126E0FFF734FA44
:1023C000E0B1206838B9FFF773FBA06800F078F936
:1023D0000546FFF78DFB04F124000499FFF73EFC4E
:1023E0002046FFF753FA00F0EBF9002886D1C8F831
:1023F0000070BFF34F8FBFF36F8F7FE72046FFF76B
:1024000045FA00F0DDF979E70021A068FFF73EFC0E
:102410009FE7FFE700208CE704ED00E02DE9F041A5
:102420000C46050011D0C4B1FFF742FB174BDA6828
:102430006E682068911B471C17D02F681B6A9F424B
:1024400019D0964217D8012410E0502080F311884B
:10245000BFF34F8FBFF36F8FFEE7502080F31188DB
:10246000BFF34F8FBFF36F8FFEE70024FFF740FBF2
:102470002046BDE8F081884205D9401A20602846F0
:10248000FFF7DEFBF1E700202060DCE730000020F2
:102490002DE9FF5F8346DDE90E87994616468A4699
:1024A0009000FFF729FA05001CD05420FFF724FA0A
:1024B000040014D00020256384F85100CDE90240C7
:1024C000CDE900874B46324651465846FFF73AF968
:1024D0002046FEF7FFFF012004B0BDE8F09F28462C
:1024E000FFF71AFB4FF0FF30F6E7F0B585B0DDE9F6
:1024F0000B640A9DA6B1DCB154270097266302261F
:1025000084F85160002604AFCDE90246CDE90057BA
:10251000FFF718F92046FEF7DDFF049805B0F0BD7F
:10252000502080F31188BFF34F8FBFF36F8FFEE70A
:10253000502080F31188BFF34F8FBFF36F8FFEE7FA
:102540000548416919B1006B18B10020704701209E
:102550007047022070470000300000202DE9F04154
:102560002F4C0026206B28B1A069401CA06130468A
:10257000BDE8F081E5686D1CE56013D1606B006813
:1025800038B1502080F31188BFF34F8FBFF36F8FA6
:10259000FEE7606BA16B6163A063206A401C206250
:1025A000FFF750F9A06ADFF87C80854209D3606BA1
:1025B0000068A0B1606BC068C7687868854211D2B6
:1025C000A0622068C06A00EB800158F82100012851
:1025D00000D90126E0690028C9D00126C7E74FF0DD
:1025E000FF30EDE7381DFFF713FAB86A18B107F1AD
:1025F0001800FFF70DFAF96A01202269884010439C
:10260000206101EB810108EB8100391DFFF744FADD
:10261000F86A2168C96A8842C9D30126C7E7000061
:10262000300000208003002070B504004FF000014E
:1026300040D0214D2868844207D0502080F3118873
:10264000BFF34F8FBFF36F8FFEE7A06C38B1401E12
:10265000A064636CE26A9A422CD040B12AE0502018
:1026600080F31188BFF34F8FBFF36F8FFEE7201DFC
:10267000FFF7CEF9114A012150B9E06A00EB80035F
:1026800052F8233023B92B6901FA00F083432B6100
:10269000606CE062C0F10700A061E06A2B698140D4
:1026A0001943296100EB800002EB8000211DFFF738
:1026B000F3F90121084670BD30000020800300209E
:1026C00070B504004FF0000034D01E4DE16A2A6856
:1026D000D26A91422FD2A069002804DB2868C06A20
:1026E000C0F10700A061184E01EB8101606906EBA3
:1026F000810188421AD1201DFFF78AF9012130B9E2
:1027000094F82C002A6901FA00F082432A612868B3
:10271000C06AE0622A6981401143296100EB8000B0
:1027200006EB8000211DFFF7B7F902E02868C06AB8
:10273000E062012070BD616C2A68D26A9142F8D3D0
:1027400070BD000030000020800300202DE9F04122
:10275000C068C468ACB104F118000746FFF758F927
:10276000154D286B0126A0B139461448FFF794F99E
:10277000E06A2968C96A88421CD90120EE61BDE877
:10278000F081502080F31188BFF34F8FBFF36F8F1C
:10279000FEE7201DFFF73CF9E16A2A6906FA01F01D
:1027A0001043286101EB81000449B43901EB80003A
:1027B000211DDBE70020E2E7300000203404002088
:1027C0002DE9F0472C4D00242746286B38B1FFF740
:1027D0006FF9286B401E2863286B40B146E05020FB
:1027E00080F31188BFF34F8FBFF36F8FFEE7A968A7
:1027F000224E0120D1B3A6F1B40980463068E8B179
:10280000F068C46804F11800FFF702F9201DFFF713
:10281000FFF8E06A2A6908FA00F11143296100EB28
:10282000800109EB8100211DFFF736F9E06A296874
:10283000C96A8842E2D3C5F81C80DFE70CB1FFF714
:1028400001F8AC6944B14646FFF788FE00B1EE617D
:10285000641EF9D10020A861E86938B10849012750
:1028600038070860BFF34F8FBFF36F8FFFF740F952
:102870003846BDE8F0870000300000203404002016
:1028800004ED00E0542900080510000800000000D5
:1028900000000000800000000000000000000000B8
:1028A0003C29000821100008000000000000000082
:1028B0008000000000000000000000006029000807
:1028C000590E0008FFFF000000000000800000001B
:1028D0000000000000000000702900081D0E000824
:1028E000FFFF00000000000080000000000000006A
:1028F00000000000482900083D100008000000000A
:102900000000000080000000000000000000000047
:10291000010202030405060708090A0B0C0D0E0F3D
:102920001010000000000000000001020304060770
:102930000809000000000102030400006D795461E1
:10294000736B3032000000006D795461736B30336B
:102950000000000064656661756C745461736B00FF
:1029600068656C6C6F576F726C645570706572003F
:1029700068656C6C6F576F726C644C6F7765720032
:10298000A0290008000000209C000000A8120008F8
:102990003C2A00089C000020D4130000B812000854
:1029A000F4010000E8030000000000000000000047
:1029B0000000000000000000000000000000000017
:1029C00001000000100000000000000000127A006A
:1029D00000000000000000000000000000000000F7
:1029E00000000000000000000000000000000000E7
:1029F00000000000000000000000000000000000D7
:102A000000000000000000000000000000000000C6
:102A100000000000000000000000000000000000B6
:102A200000000000000000000000000000000000A6
:0C2A3000AAAAAAAA0000000000000000F2
:0400000508000131BD
:00000001FF
